{
  "contractName": "DPhoto",
  "abi": [
    {
      "constant": true,
      "inputs": [
        {
          "name": "",
          "type": "uint256"
        }
      ],
      "name": "photos",
      "outputs": [
        {
          "name": "id",
          "type": "uint256"
        },
        {
          "name": "tipAmount",
          "type": "uint256"
        },
        {
          "name": "hash",
          "type": "string"
        },
        {
          "name": "description",
          "type": "string"
        },
        {
          "name": "author",
          "type": "address"
        }
      ],
      "payable": false,
      "stateMutability": "view",
      "type": "function",
      "signature": "0xaf2a5d6f"
    },
    {
      "constant": true,
      "inputs": [],
      "name": "photosCount",
      "outputs": [
        {
          "name": "",
          "type": "uint256"
        }
      ],
      "payable": false,
      "stateMutability": "view",
      "type": "function",
      "signature": "0xf2a553b8"
    },
    {
      "anonymous": false,
      "inputs": [
        {
          "indexed": false,
          "name": "id",
          "type": "uint256"
        },
        {
          "indexed": false,
          "name": "tipAmount",
          "type": "uint256"
        },
        {
          "indexed": false,
          "name": "hash",
          "type": "string"
        },
        {
          "indexed": false,
          "name": "description",
          "type": "string"
        },
        {
          "indexed": false,
          "name": "author",
          "type": "address"
        }
      ],
      "name": "PhotoUploaded",
      "type": "event",
      "signature": "0x94df813bd0c61077518506115427982d9c520b6d144d5108ac77292aa2197254"
    },
    {
      "anonymous": false,
      "inputs": [
        {
          "indexed": false,
          "name": "id",
          "type": "uint256"
        },
        {
          "indexed": false,
          "name": "tipAmount",
          "type": "uint256"
        },
        {
          "indexed": false,
          "name": "hash",
          "type": "string"
        },
        {
          "indexed": false,
          "name": "description",
          "type": "string"
        },
        {
          "indexed": false,
          "name": "author",
          "type": "address"
        }
      ],
      "name": "PhotoTipped",
      "type": "event",
      "signature": "0xd70513bfb423bfb502d9221352ebf53c4d4fd445c6e6bb3b57e8b15e4e286dc4"
    },
    {
      "constant": false,
      "inputs": [
        {
          "name": "_photoHash",
          "type": "string"
        },
        {
          "name": "_photoDescription",
          "type": "string"
        }
      ],
      "name": "addNewPhotoEntry",
      "outputs": [],
      "payable": false,
      "stateMutability": "nonpayable",
      "type": "function",
      "signature": "0xdf24d7a0"
    },
    {
      "constant": false,
      "inputs": [
        {
          "name": "_id",
          "type": "uint256"
        }
      ],
      "name": "tipPhotoAuthor",
      "outputs": [],
      "payable": true,
      "stateMutability": "payable",
      "type": "function",
      "signature": "0x35f7d6b6"
    }
  ],
  "bytecode": "0x60806040526000805534801561001457600080fd5b50610d2d806100246000396000f3fe608060405260043610610062576000357c0100000000000000000000000000000000000000000000000000000000900463ffffffff16806335f7d6b614610067578063af2a5d6f14610095578063df24d7a0146101f6578063f2a553b814610355575b600080fd5b6100936004803603602081101561007d57600080fd5b8101908080359060200190929190505050610380565b005b3480156100a157600080fd5b506100ce600480360360208110156100b857600080fd5b81019080803590602001909291905050506107e2565b6040518086815260200185815260200180602001806020018473ffffffffffffffffffffffffffffffffffffffff1673ffffffffffffffffffffffffffffffffffffffff168152602001838103835286818151815260200191508051906020019080838360005b83811015610150578082015181840152602081019050610135565b50505050905090810190601f16801561017d5780820380516001836020036101000a031916815260200191505b50838103825285818151815260200191508051906020019080838360005b838110156101b657808201518184015260208101905061019b565b50505050905090810190601f1680156101e35780820380516001836020036101000a031916815260200191505b5097505050505050505060405180910390f35b34801561020257600080fd5b506103536004803603604081101561021957600080fd5b810190808035906020019064010000000081111561023657600080fd5b82018360208201111561024857600080fd5b8035906020019184600183028401116401000000008311171561026a57600080fd5b91908080601f016020809104026020016040519081016040528093929190818152602001838380828437600081840152601f19601f820116905080830192505050505050509192919290803590602001906401000000008111156102cd57600080fd5b8201836020820111156102df57600080fd5b8035906020019184600183028401116401000000008311171561030157600080fd5b91908080601f016020809104026020016040519081016040528093929190818152602001838380828437600081840152601f19601f820116905080830192505050505050509192919290505050610968565b005b34801561036157600080fd5b5061036a610c10565b6040518082815260200191505060405180910390f35b60008111801561039257506000548111155b151561039d57600080fd5b6103a5610c16565b6001600083815260200190815260200160002060a060405190810160405290816000820154815260200160018201548152602001600282018054600181600116156101000203166002900480601f0160208091040260200160405190810160405280929190818152602001828054600181600116156101000203166002900480156104715780601f1061044657610100808354040283529160200191610471565b820191906000526020600020905b81548152906001019060200180831161045457829003601f168201915b50505050508152602001600382018054600181600116156101000203166002900480601f0160208091040260200160405190810160405280929190818152602001828054600181600116156101000203166002900480156105135780601f106104e857610100808354040283529160200191610513565b820191906000526020600020905b8154815290600101906020018083116104f657829003601f168201915b505050505081526020016004820160009054906101000a900473ffffffffffffffffffffffffffffffffffffffff1673ffffffffffffffffffffffffffffffffffffffff1673ffffffffffffffffffffffffffffffffffffffff168152505090506000816080015190508073ffffffffffffffffffffffffffffffffffffffff166108fc349081150290604051600060405180830381858888f193505050501580156105c3573d6000803e3d6000fd5b5034826020018181510191508181525050816001600085815260200190815260200160002060008201518160000155602082015181600101556040820151816002019080519060200190610618929190610c5c565b506060820151816003019080519060200190610635929190610c5c565b5060808201518160040160006101000a81548173ffffffffffffffffffffffffffffffffffffffff021916908373ffffffffffffffffffffffffffffffffffffffff1602179055509050507fd70513bfb423bfb502d9221352ebf53c4d4fd445c6e6bb3b57e8b15e4e286dc48383602001518460400151856060015186608001516040518086815260200185815260200180602001806020018473ffffffffffffffffffffffffffffffffffffffff1673ffffffffffffffffffffffffffffffffffffffff168152602001838103835286818151815260200191508051906020019080838360005b8381101561073857808201518184015260208101905061071d565b50505050905090810190601f1680156107655780820380516001836020036101000a031916815260200191505b50838103825285818151815260200191508051906020019080838360005b8381101561079e578082015181840152602081019050610783565b50505050905090810190601f1680156107cb5780820380516001836020036101000a031916815260200191505b5097505050505050505060405180910390a1505050565b6001602052806000526040600020600091509050806000015490806001015490806002018054600181600116156101000203166002900480601f01602080910402602001604051908101604052809291908181526020018280546001816001161561010002031660029004801561089a5780601f1061086f5761010080835404028352916020019161089a565b820191906000526020600020905b81548152906001019060200180831161087d57829003601f168201915b505050505090806003018054600181600116156101000203166002900480601f0160208091040260200160405190810160405280929190818152602001828054600181600116156101000203166002900480156109385780601f1061090d57610100808354040283529160200191610938565b820191906000526020600020905b81548152906001019060200180831161091b57829003601f168201915b5050505050908060040160009054906101000a900473ffffffffffffffffffffffffffffffffffffffff16905085565b6000825111801561097a575060008151115b80156109b35750600073ffffffffffffffffffffffffffffffffffffffff163373ffffffffffffffffffffffffffffffffffffffff1614155b15156109be57600080fd5b600080815480929190600101919050555060a0604051908101604052806000548152602001600081526020018381526020018281526020013373ffffffffffffffffffffffffffffffffffffffff16815250600160008054815260200190815260200160002060008201518160000155602082015181600101556040820151816002019080519060200190610a54929190610c5c565b506060820151816003019080519060200190610a71929190610c5c565b5060808201518160040160006101000a81548173ffffffffffffffffffffffffffffffffffffffff021916908373ffffffffffffffffffffffffffffffffffffffff1602179055509050507f94df813bd0c61077518506115427982d9c520b6d144d5108ac77292aa219725460005460008484336040518086815260200185815260200180602001806020018473ffffffffffffffffffffffffffffffffffffffff1673ffffffffffffffffffffffffffffffffffffffff168152602001838103835286818151815260200191508051906020019080838360005b83811015610b67578082015181840152602081019050610b4c565b50505050905090810190601f168015610b945780820380516001836020036101000a031916815260200191505b50838103825285818151815260200191508051906020019080838360005b83811015610bcd578082015181840152602081019050610bb2565b50505050905090810190601f168015610bfa5780820380516001836020036101000a031916815260200191505b5097505050505050505060405180910390a15050565b60005481565b60a06040519081016040528060008152602001600081526020016060815260200160608152602001600073ffffffffffffffffffffffffffffffffffffffff1681525090565b828054600181600116156101000203166002900490600052602060002090601f016020900481019282601f10610c9d57805160ff1916838001178555610ccb565b82800160010185558215610ccb579182015b82811115610cca578251825591602001919060010190610caf565b5b509050610cd89190610cdc565b5090565b610cfe91905b80821115610cfa576000816000905550600101610ce2565b5090565b9056fea165627a7a72305820fa49f4d1ea24203e802eda04bf064cfa542c2faae79f8325c1793c47e73524230029",
  "source": "pragma solidity >=0.4.21 <0.7.0;\r\n\r\ncontract DPhoto{\r\n    uint public photosCount=0;\r\n    struct Photo{\r\n        uint id;\r\n        uint tipAmount;\r\n        string hash;\r\n        string description;\r\n        address payable author;\r\n    }\r\n\r\n    event PhotoUploaded(\r\n        uint id,\r\n        uint tipAmount,\r\n        string hash,\r\n        string description,\r\n        address payable author\r\n    );\r\n\r\n    event PhotoTipped(\r\n        uint id,\r\n        uint tipAmount,\r\n        string hash,\r\n        string description,\r\n        address payable author\r\n    );\r\n\r\n    mapping(uint=>Photo) public photos;\r\n\r\n   \r\n\r\n    function addNewPhotoEntry(string memory _photoHash,string memory _photoDescription) public\r\n    {\r\n        \r\n        require(bytes(_photoHash).length>0  && bytes(_photoDescription).length>0 && msg.sender!=address(0));\r\n        photosCount++;\r\n        photos[photosCount]=Photo(photosCount,0,_photoHash,_photoDescription,msg.sender);\r\n        emit PhotoUploaded(photosCount,0, _photoHash, _photoDescription,msg.sender);\r\n    }\r\n\r\n    function tipPhotoAuthor(uint _id) public payable{\r\n\r\n        require(_id>0 && _id<=photosCount);\r\n        Photo memory _photo=photos[_id];\r\n        address payable _author=_photo.author;\r\n        address(_author).transfer(msg.value);\r\n        _photo.tipAmount+=msg.value;\r\n        photos[_id]=_photo;\r\n        emit PhotoTipped(_id,_photo.tipAmount,_photo.hash,_photo.description,_photo.author);\r\n\r\n    }\r\n\r\n}",
  "sourcePath": "D:/Blockchain Development/Dphoto_updated/contracts/DPhoto.sol",
  "compiler": {
    "name": "solc",
    "version": "0.5.0+commit.1d4f565a.Emscripten.clang"
  },
  "schemaVersion": "3.0.1",
  "updatedAt": "2021-08-13T14:53:13.890Z",
  "devdoc": {
    "methods": {}
  },
  "userdoc": {
    "methods": {}
  }
}